:020000040800F2
:1000000010040020C9000008D1000008D300000837
:1000100000000000000000000000000000000000E0
:10002000000000000000000000000000D5000008F3
:100030000000000000000000D7000008990300083D
:10004000DB000008DB000008DB000008DB00000824
:10005000DB000008DB000008DB000008DB00000814
:1000600000000000DB000008DB000008DB000008E7
:10007000DB000008DB000008DB000008DB000008F4
:10008000DB0000080000000000000000DB000008AA
:1000900000000000DB000008DB000008DB000008B7
:1000A00000000000DB00000800000000DB0000088A
:1000B0000448854600F02CF800480047A9060008CF
:1000C000C046C0461004002004488047044800474A
:1000D000FEE7FEE7FEE7FEE7FEE7FEE70D040008A9
:1000E000B100000830B50B46014600202022012453
:1000F00009E00D46D5409D4205D31D469540491B5C
:100100002546954040191546521E002DF1DC30BDA4
:10011000064C0125064E05E0E36807CC2B430C3C5A
:1001200098471034B442F7D3FFF7C6FF2007000802
:100130004007000800B587B0012040041049496914
:1001400001430F4A5161114649690140009100BFC6
:1001500000BF01A800F0C4F8012040020190012076
:1001600002900020049003200390012005900020BD
:10017000069001A9034800F015F807B000BD000083
:10018000001002400004004808B5054949690143D0
:10019000034A5161114649690140009100BF08BD01
:1001A00000100240F8B505460E46002000900920D8
:1001B000C006854204D101204004FFF7E5FF17E0A7
:1001C0004448854203D10002FFF7DEFF10E04248B9
:1001D000854203D10002FFF7D7FF09E03F4885427F
:1001E00004D101208005FFF7CFFF01E0012000903E
:1001F000009800286BD100275BE00121B9403468EA
:100200000C40002C54D07068022829D1FF2C11D842
:100210007069296A224662436243624313019A1A53
:10022000914322466243624362434243114329623F
:1002300000BF15E07369200A4043210A4843210AA0
:1002400048430101091A686A8843210A4943220A7E
:100250005143220A514359430843686200BF00BF1B
:10026000B068A968224662435300D21891432246DF
:10027000624342431143A96000BF3069E9682246E6
:1002800062435300D21891432246624342431143D2
:10029000E96000BF70682968224662435300D218A3
:1002A00091432246624342431143296000BF00BF8D
:1002B0007F1C3068F84000289FD1F16830686A6878
:1002C000824303464B431A436A6000BF00BF009855
:1002D000F8BD000000040048000800480014004871
:1002E000044901600321416000218160C160016116
:1002F00041617047FFFF00000CB5002001900090A5
:1003000011201D4908601D4840681C494860084686
:1003100040684860084640683F21090488431749FF
:100320004860084640680521C904084313494860ED
:10033000084600680121090608431049086000BF0B
:100340000E4800680121490608400028F8D00B48F3
:1003500040688008800009494860084640680221DA
:1003600008430649486000BF044840680C21084023
:100370000828F9D10CBD0000002002400010024006
:1003800004480068002804D002480068401E014963
:10039000086070470400002010B5FFF7F1FF10BDA2
:1003A00010B57D21C90010480068FFF79BFE044688
:1003B000601E0E49884201D901200CE0601E0C49E4
:1003C00048610321081F00F069F80020084988618E
:1003D000072008610020002801D000BFFEE70321AC
:1003E000081F00F05BF810BD00000020FFFFFF00B9
:1003F00000E000E001B504490098086000BF024831
:1004000000680028FBD108BD0400002010B5184882
:1004100000680121084316490860084640681549EC
:1004200008401349486008460068134908401049CD
:100430000860084600680121890488430C49086067
:10044000084640683F210904884309494860084636
:10045000C06A00090001C8620846006BFF215431E0
:1004600088430349086300208860FFF745FF10BDFB
:10047000001002400CB8FFF8FFFFF6FE0FB410B5F5
:1004800003A9044B044A029800F054F810BC08BCBD
:1004900004B01847850600080800002010B50028A1
:1004A00019DB1A4A03231B02D21883089B00D25877
:1004B0008307DC0EFF23A3409A438B071B0E8407A0
:1004C000E40EA3401A43114B032424021B19840891
:1004D000A4001A5118E00E4A03071B0F083B9B08A3
:1004E0009B00D2588307DC0EFF23A3409A438B075F
:1004F0001B0E8407E40EA3401A43054B0407240F88
:10050000083CA408A4001A5110BD000000E100E05E
:100510001CED00E002E008C8121F08C1002AFAD151
:1005200070477047002001E001C1121F002AFBD173
:1005300070470000FFB58DB00446002506E0252871
:100540000AD0109A0F999047641C6D1C20780028DF
:10055000F5D1284611B0F0BD00270121484A009787
:1005600000E00743641C23780846203B9840104273
:10057000F7D120782E2817D1042007436078641C17
:100580002A280CD10E98641C02C800910E900BE032
:1005900000990A22514330394018641C0090207899
:1005A000014630390929F3D920780028D1D06428B0
:1005B00008D0692806D075281ED0109A0F99904748
:1005C0006D1C5BE00A200E99019001C90E91002874
:1005D00002DA40422D2102E0390504D52B216A467A
:1005E0001172012103E0F90704D02021F7E70BAED7
:1005F0000B910DE00021FAE70A200E99019001C944
:100600000E91F7E70199FFF76DFD3031761E3170DD
:100610000028F7D103A8801B20300190780701D56E
:10062000009801E0012000900199884201DD401A04
:1006300000E000200027009006E002A8109AC05DAC
:100640000F9990476D1C7F1C0B988742F5DB04E0E7
:10065000109A30200F9990476D1C0099481E009009
:100660000029F5DC05E03078109A761C0F99904748
:100670006D1C0199481E01900029F4DC641C65E79B
:10068000092801000B4600BF00BF0649C969802246
:100690001140C9090029F7D00249C2B20A8500BF3A
:1006A00070470000003801400024FFF779FEFFF793
:1006B00041FD012040020921C906886100BF0BA04D
:1006C000FFF7DCFE11E0C820FFF794FE0120400296
:1006D0000921C906496941400922D206516100BF7A
:1006E000641C214608A0FFF7C9FEECE70D0A2A2A80
:1006F0002A2A2A55415254204578616D706C652A2A
:100700002A2A2A2A0D0A00000D0A2D2D2D2D2D72C0
:10071000756E6E696E6720636F756E743A2564003E
:1007200040070008000000200C000000140500082D
:100730004C0700080C0000200404000024050008F9
:0C074000006CDC02000000000000000063
:04000005080000B13E
:00000001FF
