:020000040800F2
:1000000010040020C9000008D1000008D300000837
:1000100000000000000000000000000000000000E0
:10002000000000000000000000000000D5000008F3
:100030000000000000000000D70000087D06000856
:10004000DB000008DB000008DB000008DB00000824
:10005000DB000008DB000008DB000008DB00000814
:1000600000000000DB000008DB000008DB000008E7
:10007000DB000008DB000008DB000008DB000008F4
:10008000DB0000080000000000000000DB000008AA
:1000900000000000DB000008DB000008DB000008B7
:1000A00000000000DB00000800000000DB0000088A
:1000B0000448854600F03EF800480047810A0008E1
:1000C000C046C0461004002004488047044800474A
:1000D000FEE7FEE7FEE7FEE7FEE7FEE7F1060008C3
:1000E000B100000830B50B46014600202022012453
:1000F00009E00D46D5409D4205D31D469540491B5C
:100100002546954040191546521E002DF1DC30BDA4
:10011000D2B201E00270401C491EFBD2704700229F
:10012000F6E710B513460A4604461946FFF7F0FFF6
:10013000204610BD064C0125064E05E0E36807CCBD
:100140002B430C3C98471034B442F7D3FFF7B4FF6D
:10015000440B0008640B000800B587B00120800440
:100160001049496901430F4A5161114649690140EB
:10017000009100BF00BF01A800F0D2F803200002E8
:1001800001900120029000200490032003900120A0
:1001900005900020069001A9034800F023F807B05D
:1001A00000BD0000001002400004004808B50549E9
:1001B00049690143034A516111464969014000916F
:1001C00000BF08BD0010024008B505498969014318
:1001D000034A9161114689690140009100BF08BD41
:1001E00000100240F8B505460E4600200090092098
:1001F000C006854204D101204004FFF7D7FF17E075
:100200004448854203D10002FFF7D0FF10E0424886
:10021000854203D10002FFF7C9FF09E03F4885424C
:1002200004D101208005FFF7C1FF01E0012000900B
:10023000009800286BD100275BE00121B9403468A9
:100240000C40002C54D07068022829D1FF2C11D802
:100250007069296A224662436243624313019A1A13
:1002600091432246624362436243424311432962FF
:1002700000BF15E07369200A4043210A4843210A60
:1002800048430101091A686A8843210A4943220A3E
:100290005143220A514359430843686200BF00BFDB
:1002A000B068A968224662435300D218914322469F
:1002B000624342431143A96000BF3069E9682246A6
:1002C00062435300D2189143224662434243114392
:1002D000E96000BF70682968224662435300D21863
:1002E00091432246624342431143296000BF00BF4D
:1002F0007F1C3068F84000289FD1F16830686A6838
:10030000824303464B431A436A6000BF00BF009814
:10031000F8BD000000040048000800480014004830
:10032000044901600321416000218160C1600161D5
:1003300041617047FFFF000042694A4042617047D7
:1003400002484068F0210840704700000010024059
:100350000248406807210902084070470010024027
:10036000024840680C21084070470000001002401D
:10037000F8B504460025002C33D100BF1A48006BA5
:100380000321A14008402106084300281BD0012872
:1003900004D002280FD0032814D106E0FFF7E0FFB5
:1003A000064600F0D3F805461AE000F021F80028D0
:1003B00000D00E4D14E000F023F8002801D00125F4
:1003C000ED030DE000BFFFF7CBFF009000F0BEF89B
:1003D000074600F0A1F8064600F0ACF8054600BF5D
:1003E00000BF2846F8BD00000010024000127A004D
:1003F000024800680221084040087047001002408F
:100400000248006A0221084040087047001002407C
:10041000024840680121090408407047001002406A
:10042000024840680F2189040840704700100240CC
:10043000F0B585B004460D460120049000200390DD
:1004400001208003FFF7C0FE204600F05DF8002881
:1004500050D1E9686868084329690843A9690843D5
:100460002168264A114008432060A8686168032279
:10047000120391430143616000BF6869A1681211D2
:1004800091430143A16000BF1D48844203D1002075
:10049000FFF76EFF0390039800282BD028680028F0
:1004A00028D000200490039FA86902902E680121A3
:1004B000C9030298884214D179007208881831461D
:1004C000FFF710FE80B201900E490198084000909D
:1004D00001980007400F0099084300900098E060E1
:1004E00006E07108C8193146FFF7FCFD80B2E060F4
:1004F00000BF00BF049805B0F0BD0000F369FFFF26
:1005000000380140F0FF000001460868C007C00F36
:10051000012250405040704710B50446FFF710FFCD
:10052000F021084000090249095C2046C84010BD7E
:100530002C0B000810B50446FFF70AFF000A024919
:10054000095C2046C84010BD3C0B000870B504464D
:100550000025002C04D0042C04D0082C08D103E082
:10056000064D07E0054D05E000F00AF8054601E0FC
:10057000024D00BF00BF284670BD000000127A0087
:10058000F8B500240025FFF743FF0546002D04D0F1
:1005900001200004281A04D101E00D4C03E00D4CA9
:1005A00001E00B4C00BF00BF00BF0B48C06A000752
:1005B000000F461C31462046FFF794FD0746FFF723
:1005C0002FFF0F2189040840800C801C7843F8BD60
:1005D00000093D0000127A00001002400CB5002016
:1005E0000190009011201D4908601D4840681C4979
:1005F0004860084640684860084640683F21090452
:10060000884317494860084640680521C9040843E3
:10061000134948600846006801210906084310494B
:10062000086000BF0E480068012149060840002804
:10063000F8D00B48406880088000094948600846A7
:100640004068022108430649486000BF04484068EA
:100650000C2108400828F9D10CBD00000020024000
:100660000010024004480068002804D002480068D6
:10067000401E0149086070470400002010B5FFF7D4
:10068000F1FF10BD10B57D21C90010480068FFF7CB
:1006900029FD0446601E0E49884201D901200CE064
:1006A000601E0C4948610321081F00F0E3F8002098
:1006B00008498861072008610020002801D000BF98
:1006C000FEE70321081F00F0D5F810BD0000002050
:1006D000FFFFFF0000E000E001B50449009808605A
:1006E00000BF024800680028FBD108BD04000020BC
:1006F00010B51848006801210843164908600846EB
:100700004068154908401349486008460068134985
:1007100008401049086008460068012189048843A0
:100720000C490860084640683F210904884309498C
:1007300048600846C06A00090001C8620846006BAC
:10074000FF21543188430349086300208860FFF784
:1007500045FF10BD001002400CB8FFF8FFFFF6FE89
:1007600000B58FB01C2108A8FFF7D9FC182102A8FA
:10077000FFF7D5FC01208003344989690143334ADE
:100780009161114689690140019100BF00BFC0001D
:10079000114649690143516111464969014001917E
:1007A00000BF00BF001202900220039003200490BB
:1007B0000020059006900120079002A90920C0069C
:1007C000FFF710FD01208002029002200390032019
:1007D00004900020059006900120079002A90920AE
:1007E000C006FFF7FFFCE1204002089000200990BE
:1007F0000A900B900C200C9000200D900E9008A9F0
:100800001348FFF715FE00BF1148806801218902D7
:1008100088430F49886000BF00BF0846406809212F
:10082000C90288430A494860084680682A218843EB
:100830000749886000BF00BF0846006801210843DF
:100840000349086000BF0FB000BD00000010024067
:10085000003801400FB410B503A9044B044A0298B4
:1008600000F054F810BC08BC04B018475D0A00083A
:100870000800002010B5002819DB1A4A03231B02C8
:10088000D21883089B00D2588307DC0EFF23A340B5
:100890009A438B071B0E8407E40EA3401A43114BA7
:1008A000032424021B198408A4001A5118E00E4ADC
:1008B00003071B0F083B9B089B00D2588307DC0EE5
:1008C000FF23A3409A438B071B0E8407E40EA3402B
:1008D0001A43054B0407240F083CA408A4001A512E
:1008E00010BD000000E100E01CED00E002E008C8DF
:1008F000121F08C1002AFAD170477047002001E09A
:1009000001C1121F002AFBD170470000FFB58DB056
:100910000446002506E025280AD0109A0F99904732
:10092000641C6D1C20780028F5D1284611B0F0BD5C
:1009300000270121484A009700E00743641C237800
:100940000846203B98401042F7D120782E2817D136
:10095000042007436078641C2A280CD10E98641C7C
:1009600002C800910E900BE000990A2251433039E1
:100970004018641C00902078014630390929F3D9C9
:1009800020780028D1D0642808D0692806D075289E
:100990001ED0109A0F9990476D1C5BE00A200E99AB
:1009A000019001C90E91002802DA40422D2102E097
:1009B000390504D52B216A461172012103E0F9079C
:1009C00004D02021F7E70BAE0B910DE00021FAE7F0
:1009D0000A200E99019001C90E91F7E70199FFF7DE
:1009E00081FB3031761E31700028F7D103A8801BBF
:1009F00020300190780701D5009801E00120009097
:100A00000199884201DD401A00E000200027009093
:100A100006E002A8109AC05D0F9990476D1C7F1CDC
:100A20000B988742F5DB04E0109A30200F9990472D
:100A30006D1C0099481E00900029F5DC05E0307817
:100A4000109A761C0F9990476D1C0199481E0190D1
:100A50000029F4DC641C65E7092801000B4600BF8F
:100A600000BF0649C96980221140C9090029F7D091
:100A70000249C2B20A8500BF704700000038014039
:100A80000024FFF7FFFDFFF767FBFFF769FE01207A
:100A900040020E49886100BF4010886200BF0CA070
:100AA000FFF7D8FE11E0C820FFF716FE012149022A
:100AB0000648FFF741FCFF2101310448FFF73CFCE9
:100AC000641C214609A0FFF7C5FEECE700040048BE
:100AD0000D0A2A2A2A2A2A55415254204578616D46
:100AE000706C652A2A2A2A2A0D0A00000D0A2D2D6B
:100AF0002D2D2D72756E6E696E6720636F756E7425
:100B00003A256400081C3044580000000004040426
:100B100000000800000008000008000000080002B3
:100B20000406080A0C000102030405060000000088
:100B3000000000000102030406070809000000008D
:100B400001020304640B0008000000200C000000F8
:100B5000EC080008700B00080C00002004040000E2
:100B6000FC080008006CDC0200000000000000002F
:04000005080000B13E
:00000001FF
